{
  "_format": "hh-sol-artifact-1",
  "contractName": "SimpleMarketplace",
  "sourceName": "contracts/Contract.sol",
  "abi": [
    {
      "inputs": [],
      "stateMutability": "nonpayable",
      "type": "constructor"
    },
    {
      "anonymous": false,
      "inputs": [
        {
          "indexed": true,
          "internalType": "uint256",
          "name": "id",
          "type": "uint256"
        },
        {
          "indexed": true,
          "internalType": "address",
          "name": "buyer",
          "type": "address"
        },
        {
          "indexed": false,
          "internalType": "uint256",
          "name": "price",
          "type": "uint256"
        }
      ],
      "name": "ItemPurchased",
      "type": "event"
    },
    {
      "inputs": [],
      "name": "itemCount",
      "outputs": [
        {
          "internalType": "uint256",
          "name": "",
          "type": "uint256"
        }
      ],
      "stateMutability": "view",
      "type": "function"
    },
    {
      "inputs": [
        {
          "internalType": "uint256",
          "name": "",
          "type": "uint256"
        }
      ],
      "name": "items",
      "outputs": [
        {
          "internalType": "uint256",
          "name": "id",
          "type": "uint256"
        },
        {
          "internalType": "uint256",
          "name": "price",
          "type": "uint256"
        },
        {
          "internalType": "address",
          "name": "seller",
          "type": "address"
        }
      ],
      "stateMutability": "view",
      "type": "function"
    },
    {
      "inputs": [
        {
          "internalType": "uint256",
          "name": "price",
          "type": "uint256"
        }
      ],
      "name": "listItem",
      "outputs": [],
      "stateMutability": "nonpayable",
      "type": "function"
    },
    {
      "inputs": [
        {
          "internalType": "uint256",
          "name": "itemId",
          "type": "uint256"
        }
      ],
      "name": "purchaseItem",
      "outputs": [],
      "stateMutability": "payable",
      "type": "function"
    }
  ],
  "bytecode": "0x608060405234801561001057600080fd5b50610028670de0b6b3a764000061005b60201b60201c565b61003f671bc16d674ec8000061005b60201b60201c565b6100566729a2241af62c000061005b60201b60201c565b61019c565b6001600081548092919061006e90610154565b9190505550604051806060016040528060015481526020018281526020013373ffffffffffffffffffffffffffffffffffffffff168152506000806001548152602001908152602001600020600082015181600001556020820151816001015560408201518160020160006101000a81548173ffffffffffffffffffffffffffffffffffffffff021916908373ffffffffffffffffffffffffffffffffffffffff16021790555090505050565b7f4e487b7100000000000000000000000000000000000000000000000000000000600052601160045260246000fd5b6000819050919050565b600061015f8261014a565b91507fffffffffffffffffffffffffffffffffffffffffffffffffffffffffffffffff82036101915761019061011b565b5b600182019050919050565b610768806101ab6000396000f3fe60806040526004361061003f5760003560e01c80632ce38190146100445780636bfb0d011461006d578063bfb231d214610098578063d38ea5bf146100d7575b600080fd5b34801561005057600080fd5b5061006b60048036038101906100669190610451565b6100f3565b005b34801561007957600080fd5b506100826101b3565b60405161008f919061048d565b60405180910390f35b3480156100a457600080fd5b506100bf60048036038101906100ba9190610451565b6101b9565b6040516100ce939291906104e9565b60405180910390f35b6100f160048036038101906100ec9190610451565b610203565b005b600160008154809291906101069061054f565b9190505550604051806060016040528060015481526020018281526020013373ffffffffffffffffffffffffffffffffffffffff168152506000806001548152602001908152602001600020600082015181600001556020820151816001015560408201518160020160006101000a81548173ffffffffffffffffffffffffffffffffffffffff021916908373ffffffffffffffffffffffffffffffffffffffff16021790555090505050565b60015481565b60006020528060005260406000206000915090508060000154908060010154908060020160009054906101000a900473ffffffffffffffffffffffffffffffffffffffff16905083565b60008060008381526020019081526020016000209050600073ffffffffffffffffffffffffffffffffffffffff168160020160009054906101000a900473ffffffffffffffffffffffffffffffffffffffff1673ffffffffffffffffffffffffffffffffffffffff16036102ac576040517f08c379a00000000000000000000000000000000000000000000000000000000081526004016102a3906105f4565b60405180910390fd5b348160010154146102f2576040517f08c379a00000000000000000000000000000000000000000000000000000000081526004016102e990610660565b60405180910390fd5b60008160020160009054906101000a900473ffffffffffffffffffffffffffffffffffffffff1673ffffffffffffffffffffffffffffffffffffffff163460405161033c906106b1565b60006040518083038185875af1925050503d8060008114610379576040519150601f19603f3d011682016040523d82523d6000602084013e61037e565b606091505b50509050806103c2576040517f08c379a00000000000000000000000000000000000000000000000000000000081526004016103b990610712565b60405180910390fd5b3373ffffffffffffffffffffffffffffffffffffffff16837f78a0660bbda86d17037943644187f6f1f73f2f20a3240bf4cf4a56c2a96bcf8434604051610409919061048d565b60405180910390a3505050565b600080fd5b6000819050919050565b61042e8161041b565b811461043957600080fd5b50565b60008135905061044b81610425565b92915050565b60006020828403121561046757610466610416565b5b60006104758482850161043c565b91505092915050565b6104878161041b565b82525050565b60006020820190506104a2600083018461047e565b92915050565b600073ffffffffffffffffffffffffffffffffffffffff82169050919050565b60006104d3826104a8565b9050919050565b6104e3816104c8565b82525050565b60006060820190506104fe600083018661047e565b61050b602083018561047e565b61051860408301846104da565b949350505050565b7f4e487b7100000000000000000000000000000000000000000000000000000000600052601160045260246000fd5b600061055a8261041b565b91507fffffffffffffffffffffffffffffffffffffffffffffffffffffffffffffffff820361058c5761058b610520565b5b600182019050919050565b600082825260208201905092915050565b7f4974656d20646f6573206e6f7420657869737400000000000000000000000000600082015250565b60006105de601383610597565b91506105e9826105a8565b602082019050919050565b6000602082019050818103600083015261060d816105d1565b9050919050565b7f496e636f72726563742070726963652073656e74000000000000000000000000600082015250565b600061064a601483610597565b915061065582610614565b602082019050919050565b600060208201905081810360008301526106798161063d565b9050919050565b600081905092915050565b50565b600061069b600083610680565b91506106a68261068b565b600082019050919050565b60006106bc8261068e565b9150819050919050565b7f5472616e7366657220746f2073656c6c6572206661696c65642e000000000000600082015250565b60006106fc601a83610597565b9150610707826106c6565b602082019050919050565b6000602082019050818103600083015261072b816106ef565b905091905056fea2646970667358221220dd165a3f76c0a6ad383fb8ef18832b94168ed073a0fc3c8a45d8c3a729880fff64736f6c63430008180033",
  "linkReferences": {},
  "deployedLinkReferences": {}
}