{
  "_format": "hh-sol-artifact-1",
  "contractName": "SimpleMarketplace",
  "sourceName": "contracts/Contract.sol",
  "abi": [
    {
      "inputs": [],
      "stateMutability": "nonpayable",
      "type": "constructor"
    },
    {
      "anonymous": false,
      "inputs": [
        {
          "indexed": true,
          "internalType": "uint256",
          "name": "id",
          "type": "uint256"
        },
        {
          "indexed": true,
          "internalType": "address",
          "name": "buyer",
          "type": "address"
        },
        {
          "indexed": false,
          "internalType": "uint256",
          "name": "price",
          "type": "uint256"
        }
      ],
      "name": "ItemPurchased",
      "type": "event"
    },
    {
      "inputs": [],
      "name": "itemCount",
      "outputs": [
        {
          "internalType": "uint256",
          "name": "",
          "type": "uint256"
        }
      ],
      "stateMutability": "view",
      "type": "function"
    },
    {
      "inputs": [
        {
          "internalType": "uint256",
          "name": "",
          "type": "uint256"
        }
      ],
      "name": "items",
      "outputs": [
        {
          "internalType": "uint256",
          "name": "id",
          "type": "uint256"
        },
        {
          "internalType": "uint256",
          "name": "price",
          "type": "uint256"
        },
        {
          "internalType": "address",
          "name": "seller",
          "type": "address"
        }
      ],
      "stateMutability": "view",
      "type": "function"
    },
    {
      "inputs": [
        {
          "internalType": "uint256",
          "name": "id",
          "type": "uint256"
        },
        {
          "internalType": "uint256",
          "name": "price",
          "type": "uint256"
        }
      ],
      "name": "listItem",
      "outputs": [],
      "stateMutability": "nonpayable",
      "type": "function"
    },
    {
      "inputs": [
        {
          "internalType": "uint256",
          "name": "itemId",
          "type": "uint256"
        }
      ],
      "name": "purchaseItem",
      "outputs": [],
      "stateMutability": "payable",
      "type": "function"
    }
  ],
  "bytecode": "0x608060405234801561001057600080fd5b5061002a6001671bc16d674ec800006100e860201b60201c565b6100436002673782dace9d9000006100e860201b60201c565b61005c6003676124fee993bc00006100e860201b60201c565b6100756004674563918244f400006100e860201b60201c565b610090620e20e7677ce66c50e28400006100e860201b60201c565b6100ab620ceff3676f05b59d3b2000006100e860201b60201c565b6100c6620cf114673782dace9d9000006100e860201b60201c565b6100e3620cf2f969be951906eba2aa8000006100e860201b60201c565b610226565b60405180606001604052808381526020018281526020013373ffffffffffffffffffffffffffffffffffffffff16815250600080848152602001908152602001600020600082015181600001556020820151816001015560408201518160020160006101000a81548173ffffffffffffffffffffffffffffffffffffffff021916908373ffffffffffffffffffffffffffffffffffffffff1602179055509050506001600081548092919061019c906101de565b91905055505050565b7f4e487b7100000000000000000000000000000000000000000000000000000000600052601160045260246000fd5b6000819050919050565b60006101e9826101d4565b91507fffffffffffffffffffffffffffffffffffffffffffffffffffffffffffffffff820361021b5761021a6101a5565b5b600182019050919050565b6107a5806102356000396000f3fe60806040526004361061003f5760003560e01c80636bfb0d0114610044578063883efa671461006f578063bfb231d214610098578063d38ea5bf146100d7575b600080fd5b34801561005057600080fd5b506100596100f3565b604051610066919061042c565b60405180910390f35b34801561007b57600080fd5b5061009660048036038101906100919190610478565b6100f9565b005b3480156100a457600080fd5b506100bf60048036038101906100ba91906104b8565b6101b6565b6040516100ce93929190610526565b60405180910390f35b6100f160048036038101906100ec91906104b8565b610200565b005b60015481565b60405180606001604052808381526020018281526020013373ffffffffffffffffffffffffffffffffffffffff16815250600080848152602001908152602001600020600082015181600001556020820151816001015560408201518160020160006101000a81548173ffffffffffffffffffffffffffffffffffffffff021916908373ffffffffffffffffffffffffffffffffffffffff160217905550905050600160008154809291906101ad9061058c565b91905055505050565b60006020528060005260406000206000915090508060000154908060010154908060020160009054906101000a900473ffffffffffffffffffffffffffffffffffffffff16905083565b60008060008381526020019081526020016000209050600073ffffffffffffffffffffffffffffffffffffffff168160020160009054906101000a900473ffffffffffffffffffffffffffffffffffffffff1673ffffffffffffffffffffffffffffffffffffffff16036102a9576040517f08c379a00000000000000000000000000000000000000000000000000000000081526004016102a090610631565b60405180910390fd5b348160010154146102ef576040517f08c379a00000000000000000000000000000000000000000000000000000000081526004016102e69061069d565b60405180910390fd5b60008160020160009054906101000a900473ffffffffffffffffffffffffffffffffffffffff1673ffffffffffffffffffffffffffffffffffffffff1634604051610339906106ee565b60006040518083038185875af1925050503d8060008114610376576040519150601f19603f3d011682016040523d82523d6000602084013e61037b565b606091505b50509050806103bf576040517f08c379a00000000000000000000000000000000000000000000000000000000081526004016103b69061074f565b60405180910390fd5b3373ffffffffffffffffffffffffffffffffffffffff16837f78a0660bbda86d17037943644187f6f1f73f2f20a3240bf4cf4a56c2a96bcf8434604051610406919061042c565b60405180910390a3505050565b6000819050919050565b61042681610413565b82525050565b6000602082019050610441600083018461041d565b92915050565b600080fd5b61045581610413565b811461046057600080fd5b50565b6000813590506104728161044c565b92915050565b6000806040838503121561048f5761048e610447565b5b600061049d85828601610463565b92505060206104ae85828601610463565b9150509250929050565b6000602082840312156104ce576104cd610447565b5b60006104dc84828501610463565b91505092915050565b600073ffffffffffffffffffffffffffffffffffffffff82169050919050565b6000610510826104e5565b9050919050565b61052081610505565b82525050565b600060608201905061053b600083018661041d565b610548602083018561041d565b6105556040830184610517565b949350505050565b7f4e487b7100000000000000000000000000000000000000000000000000000000600052601160045260246000fd5b600061059782610413565b91507fffffffffffffffffffffffffffffffffffffffffffffffffffffffffffffffff82036105c9576105c861055d565b5b600182019050919050565b600082825260208201905092915050565b7f4974656d20646f6573206e6f7420657869737400000000000000000000000000600082015250565b600061061b6013836105d4565b9150610626826105e5565b602082019050919050565b6000602082019050818103600083015261064a8161060e565b9050919050565b7f496e636f72726563742070726963652073656e74000000000000000000000000600082015250565b60006106876014836105d4565b915061069282610651565b602082019050919050565b600060208201905081810360008301526106b68161067a565b9050919050565b600081905092915050565b50565b60006106d86000836106bd565b91506106e3826106c8565b600082019050919050565b60006106f9826106cb565b9150819050919050565b7f5472616e7366657220746f2073656c6c6572206661696c65642e000000000000600082015250565b6000610739601a836105d4565b915061074482610703565b602082019050919050565b600060208201905081810360008301526107688161072c565b905091905056fea26469706673582212207df8c0efc97c6e65c4035c2a3c0efce2897dd4dd82196ed4f921c591f289152d64736f6c63430008180033",
  "linkReferences": {},
  "deployedLinkReferences": {}
}